:020000040800F2
:1000000098260020E1010008A7330008492D0008C8
:10001000A5330008450D0008FD3800080000000069
:10002000000000000000000000000000490100087E
:10003000ED0D0008000000008D010008A535000846
:10004000FB010008FB010008FB010008FB010008A0
:10005000FB010008FB010008FB010008FB01000890
:10006000FB010008FB010008FB010008490D000826
:10007000FB010008FB010008FB010008FB01000870
:10008000FB010008FB010008FB010008FB01000860
:10009000FB010008FB010008FB010008FB01000850
:1000A000FB010008FB010008FB010008FB01000840
:1000B000FB010008FB010008FB010008FB01000830
:1000C000FB010008FB010008FB010008FB01000820
:1000D000FB010008D9380008E5380008F1380008AD
:1000E000FB010008FB010008FB010008FB01000800
:1000F000FB010008FB010008FB010008FB010008F0
:10010000FB010008FB010008FB010008FB010008DF
:10011000E5360008FB0100084D360008FB01000829
:10012000FB010008FB010008FB010008FB010008BF
:10013000DFF810D000F0DCFB004800472D45000838
:10014000AFF3008098260020224B19680868B0E8B9
:10015000F00F80F30988BFF36F8F4FF0000080F33A
:1001600011884EF00D0E7047000000000648006830
:10017000006880F3088862B661B6BFF34F8FBFF3A3
:100180006F8F00DF00BF00BF08ED00E0EFF30980D4
:10019000BFF36F8F0F4B1A6820E9F00F106008B59E
:1001A0004FF0500080F31188BFF34F8FBFF36F8F74
:1001B00005F07EF84FF0000080F31188BDE808409C
:1001C00019680868B0E8F00F80F30988BFF36F8FF3
:1001D000704700BF30000020EFF30580704700003B
:1001E0000648804706480047FEE7FEE7FEE7FEE7D1
:1001F000FEE7FEE7FEE7FEE7FEE7FEE74B36000818
:1002000031010008202A04DB203A21FA02F0002103
:10021000704721FA02F3D040C2F120029140084316
:100220001946704740EA01039B0703D009E008C95B
:10023000121F08C0042AFAD203E011F8013B00F8AB
:10024000013B521EF9D27047D2B201E000F8012BF7
:10025000491EFBD270470022F6E710B513460A4646
:1002600004461946FFF7F0FF204610BD80EA010260
:1002700010B502F00043400022D04A001FD0010E0A
:1002800001EB1261C0F35600C2F3560240F40000C5
:1002900042F40002A0FB022000047F39140400D0C5
:1002A000401C50EA124001D44000491EC2B20C0664
:1002B00004EBD010401C4008802A02D003E000204C
:1002C00010BD20F00100002900DA0020184310BD05
:1002D00030B480EA010202F0004530F0004221F023
:1002E000004013D090B1C30DD40DC2F31601C0F37A
:1002F0001600E41A41F4000140F400027D349142FA
:1003000001D3641C00E04900002C02DA30BC00205C
:1003100070474FF400000023914201D3891A034330
:1003200040084FEA4101F7D151B1914202D14FF05B
:10033000004105E002D24FF0010101E06FF0010140
:1003400003EBC450284430BC00F027BA420005D06B
:10035000C0F3C7525242914201DC0020704700EBCB
:10036000C15070472DE9FE4F804681EA0300C00F5F
:100370000C46009021F0004123F00045B8EB02004C
:10038000A94105D24046214690461C460B460246EE
:1003900023F00040104347D0270DC7F30A00C3F3F2
:1003A0000A510290401A019040286BDAC3F31300FF
:1003B00040F4801B0098924620B10023D2EB030A40
:1003C00063EB0B0B01985946C0F14002504600F018
:1003D000C3F906460D4650465946019A00F0CBF93E
:1003E00010EB08006141002487EA115284EAE773A8
:1003F0001A4340D0009A62B3019A012A4FEA075289
:1004000015DC001B61EB02014FF0004202EA0752CB
:10041000CDE90042001C41F5801132462B4600F028
:1004200002FA03B0BDE8F08F40462146F9E7001B11
:1004300061EB0201001C41F5801300185B4120189C
:10044000A2F5001747EB030140EAD570B6196D41DC
:1004500011E06D084FEA360645EAC0754FEA0752CB
:10046000001B61EB0201001C41F5801149084FEAB5
:1004700030000019514132462B4603B0BDE8F04F21
:1004800000F0C2B90098012240000023D0EB020224
:1004900063EBE073009821464FEAE074B8EB00008C
:1004A00061EB0401E9E783F000435BE781F0004181
:1004B00058E72DE9FE4F81EA030404F0004421F0DF
:1004C000004100944FF0000B23F0004350EA010478
:1004D0005ED052EA03045BD0C3F30A54C1F30A5559
:1004E0002C44A4F2F3340194A0FB0254C1F3130191
:1004F00041F48011C3F3130343F4801301FB02445E
:1005000000FB034E840A970A44EA815447EA835762
:10051000A4FB076802958D0A05FB07854FEA932C1B
:1005200004FB0C542705029D4FEA065847EA16378C
:10053000B5EB08056EEB070C870E920E47EA8117A4
:1005400042EA8312A7FB0201B6EB0B0164EB000445
:100550002B0D43EA0C335E1844EB1C50DA4651462F
:10056000E7FB0201C5F313044FEA0B3343EA1453CC
:100570004FEA0432019C43EA0603A4F10C040294FE
:10058000009CCDE900B400F04EF903B0BDE8F08F57
:1005900000200146F9E72DE9F04D81EA030404F05B
:1005A000004B21F0004514464FF0000A23F00041B3
:1005B00050EA050220D054EA01021DD0C5F30A57C3
:1005C0000246C5F31303C1F31300C1F30A5640F406
:1005D000801543F48013A7EB0608101BD64608F2DB
:1005E000FD3873EB050002D308F1010801E0921811
:1005F0005B41B8F1000F03DA00200146BDE8F08D41
:1006000000204FF48011064684460EE0171B73EB62
:10061000050705D3121B63EB050306434CEA010CE7
:1006200049084FEA300092185B4150EA0107EDD1CA
:1006300052EA030012D082EA040083EA050108436B
:1006400005D0101BAB4106D20122002306E0002298
:100650004FF0004302E06FF0010253101AEB060066
:100660004CEB085110EB0A0041EB0B01BDE8F04DDB
:1006700000F0CAB896230022114600F097B80EB5D4
:1006800040F2334102910021CDE900110A460B46A8
:1006900000F0C9F803B000BD20F00040C10DC0F368
:1006A000160040F400007F2901DA002070479629E7
:1006B00003DCC1F19601C840704796398840704705
:1006C00030B5041E71F1000404DB4FF000444042D9
:1006D00064EB0101141E73F1000405DB1C464FF0AE
:1006E0000043524263EB04038B4208BF824230BD99
:1006F00030B5041E71F1000404DB4FF000444042A9
:1007000064EB0101141E73F1000405DB1C464FF07D
:100710000043524263EB0403994208BF904230BD4C
:1007200001F0004330B421F0004150EA010206D04C
:100730000A0DA2F56072C1F31301002A02DC30BC7D
:1007400000207047440F44EAC104C100E01830BCE7
:1007500000EBC25000F021B8202A04DB203A00FA56
:1007600002F1002070479140C2F1200320FA03F308
:10077000194390407047202A06DBCB17203A41FAF4
:1007800002F043EAE07306E041FA02F3D040C2F11E
:10079000200291400843194670470029A8BF7047BE
:1007A000401C490008BF20F00100704710B4B0FAA7
:1007B00080FC00FA0CF050EA010404BF10BC704742
:1007C00049B1CCF1200421FA04F411FA0CF118BF5C
:1007D000012121430843A3EB0C01CB1D4FEA00612B
:1007E0004FEA102042BF002010BC704700EBC350FE
:1007F00010440029A4BF10BC7047401C490008BF2A
:1008000020F0010010BC704710B5141E73F10004F5
:1008100008DA401C41F1000192185B411A4301D1F2
:1008200020F0010010BD2DE9F04D92469B4611B11C
:10083000B1FA81F202E0B0FA80F220329046FFF77E
:100840008BFF04460F4640EA0A0041EA0B0153467B
:100850005A46084313D0114653EA010019D0C8F193
:1008600040025046FFF7CEFC05460E46504659461C
:100870004246FFF771FF084305D0012004E02046FF
:100880003946BDE8F08D0020054346EAE0762C436A
:1008900037430A986305E40AA0EB08000022FD0A2A
:1008A00044EA47540A3002D500200146E9E7010531
:1008B00010196941DDE9084500196941BDE8F04DAD
:1008C000A2E770B521F0004303430CD0C1F30A55F1
:1008D0000024D5EB040564EB0403D617AD1AB3412D
:1008E00002DB0020014670BD201841EB025170BDB3
:1008F000064C074D06E0E06840F0010394E807006D
:1009000098471034AC42F6D3FFF716FCE8630008B2
:10091000086400082DE9F04D00231A461B1A8A418D
:1009200003DB00200146BDE8F08DC1F30A52C1F39C
:10093000130141F480154FF0000BD10702D10018CC
:100940006D41521E0027044640F2FF11384601EB6C
:10095000620A3E468046024600204FF48011FFF7AF
:1009600051FCC2197141BB1846EB0100B4EB030CFA
:1009700075EB000C04D3E41A65EB000517460E4630
:10098000241908F101006D4180463428E3DDF9198E
:1009900046EB0600091BA84103D24FF0FF32134675
:1009A00001E0002213461BEB070046EB0A51BDE8AD
:1009B000F04DFFF729BF0EB5C10F80EAE070084483
:1009C000CA07002140F233438DE80E000A460B4669
:1009D000FFF729FF03B000BD70B5C1F30A5201F063
:1009E00000450024C1F3130140F2FF3341F48011AC
:1009F0009A4201DA002070BD40F233439A42A2F2DB
:100A0000334203DC5242FFF7FDFB00E090402C43F1
:100A1000F1D0404270BD000070B5044600688168A6
:100A2000C943C90717D1816821F00101816001F034
:100A30008FF905460AE000BF01F08AF9401B022841
:100A400004D920688068C043C00706D02068806849
:100A5000C043C007F0D0002070BDA06A40F0100075
:100A6000A062E06A40F00100E062012070BD10B5B4
:100A70000146406A826A12F0500F05D0006A026B8C
:100A8000BDE8104008461047816A41F40071816258
:100A900001688968C1F3424107290CD1017B51B932
:100AA000816A21F480718162816AC90403D4816AF8
:100AB00041F00101816200F053FC10BD10B5406AA5
:100AC000816A41F040018162C16A41F00401C16262
:100AD00000F055FC10BD10B5406A00F04FFC10BD91
:100AE000F8B500260446009600688168C943C90726
:100AF0002DD0816841F001018160164816490068D7
:100B0000B0FBF1F000E0401E00900028FBD101F0A6
:100B10001FF9054616E000BF01F01AF9401B022834
:100B200010D920688068C043C0070BD0A06A40F08D
:100B30001000A062E06A40F00100E06284F82460E6
:100B40000120F8BD20688068C043C007E4D10020C0
:100B5000F8BD00002C00002040420F002DE9F047B6
:100B6000A2B044216846FFF776FB442111A8FFF7A5
:100B700072FB0024422251496846FFF753FB6D4641
:100B8000285D552805D14D48291921224230FFF70B
:100B900049FB641CE4B20B2CF2D348484230017884
:100BA000552904D0212211A9FFF73CFB2BE0417805
:100BB00042480B38512904D052290ED0532916D05F
:100BC00021E0D0F863100160D0F867104160B0F800
:100BD0006B10018190F86D1014E0816D0160C16DA2
:100BE0004160B0F86010018190F862100AE0D0F81E
:100BF0004D100160D0F851104160B0F855100181DE
:100C000090F8571081722D4D0B3D6888FFF732FD2B
:100C10006FF00E084146FFF799FBDFF8A4904946B4
:100C2000FFF724FBDFF89CA05146FFF71FFB264C83
:100C300007462060A888FFF71DFD4146FFF786FBA9
:100C40004946FFF713FB5146FFF710FB064660606D
:100C5000E888FFF70FFD4146FFF778FB4946FFF7AD
:100C600005FB5146FFF702FB0546A0603846FFF73B
:100C700013FD0C346FF00708207041463846FFF72B
:100C800065FBFFF709FD60703046FFF705FDA070BA
:100C900041463046FFF75AFBFFF7FEFCE07028465E
:100CA000FFF7FAFC207141462846FFF74FFBFFF79C
:100CB000F3FC607122B0BDE8F0870000E71D002062
:100CC000000034430000C8429000002030B58DB0D1
:100CD00020216846FFF7BFFA0020089009900A908B
:100CE00004460B90202215496846FFF79BFA6D4693
:100CF000285D68280BD1291948780E2807D18878F3
:100D0000202804D10D4810222030FFF78BFA641CF4
:100D1000E4B2102CECD3094820300178682905D0C2
:100D2000102208A9FFF77EFA0DB030BD0449C27841
:100D30000A70027A4A70407A8870F5E74A1E0020ED
:100D4000A2000020FEE70000014800F053BD0000B3
:100D50005003002030B590F840500124AC40C56BE2
:100D60006C60046863604368102B036803D099606B
:100D70000068C26030BD9A600068C16030BD00008C
:100D800010B51448124C1E22B0F801102180C07812
:100D9000A0703220E0701048016861604168A16075
:100DA0000089A0810D480F490068C4F80E000C4866
:100DB0000078A07404F11300FFF734FA3E2084F8A1
:100DC00031002146BDE810403222074801F09CBFA7
:100DD000781F0020A80000208E2200209C00002008
:100DE000A2000020421F002094030020704772B62A
:100DF000FEE700002DE9F04FADB0642103A8FFF736
:100E00002AFA00252E4618211CA8FFF724FAD249F9
:100E1000642201F16400FFF705FACF4864300178DD
:100E20002429417816D0472911D081784E290ED037
:100E3000C17852290BD001794D2908D04079432837
:100E400005D0C548642203A96430FFF7EBF92DB043
:100E5000BDE8F08F4729FAD181784E29F7D1C178C2
:100E60005229F4D101794D29F1D141794329EED1AB
:100E7000415D2C291AD1761CF6B2F11E062915D235
:100E8000DFE801F00306090C0F1265F307040DE01B
:100E900065F30F240AE065F3174407E065F31F6468
:100EA00004E065F3070701E065F30F276D1CEDB261
:100EB000642DDDD3E1B2C4F307298846A9EB01050F
:100EC0000144A5486A1CC830FFF7ACF9DFF888A2D6
:100ED000C4F307410AF1C80AC1EB146405EB0A0028
:100EE000AAF1630622463144401CFFF79BF9C7F381
:100EF000072007F0FF0CA0EB0C0204EB0900A0EBAD
:100F0000080101EB0A000CEB0601401CFFF78AF90F
:100F100006F11B00012D01D1012C7DD0D0F8491024
:100F20001C91D0F84D101D91B0F85110ADF878100B
:100F3000416DCDF87A10816DCDF87E10B0F85C105F
:100F4000ADF8821090F85E108DF8841000211CAA74
:100F5000535C303B5354491C1529F9DB1C9940F86C
:100F6000661F1D994160BDF878100181DDF87A1087
:100F7000C0F80A10DDF87E10C0F80E10BDF882101F
:100F800041829DF8841001757348E630407AFFF77E
:100F900076FB724A724BFFF78CFA07466E488B4617
:100FA000E630007AFFF76BFB6E4A6F4BFFF781FA72
:100FB000824669480E46E630C079FFF760FB6B4A0F
:100FC0006B4BFFF776FA804663488946E6308079B6
:100FD000FFF755FB674A684BFFF76BFA05465E481B
:100FE0002491E6304079FFF74AFB644A644BFFF7EF
:100FF00060FA0C46289058495748E631E63089781F
:10100000C07801EB810100EB4100FFF738FB23467C
:10101000289AFFF7A7F900E08CE02A46249BFFF707
:10102000A1F942464B46FFF79DF952463346FFF77A
:1010300099F93A465B46FFF795F90022514BFFF7C5
:10104000AAFA454C2B91F0340290A07AFFF717FBD7
:10105000424A434BFFF72DFA82468B46607AFFF7F0
:101060000EFB404A404BFFF724FA80468946207A1F
:10107000FFF705FB3D4A3E4BFFF71BFA06460F46BE
:10108000E079FFF7FCFA3B4A3B4BFFF712FA289056
:101090000D46A079FFF7F3FA384A394BFFF709FA02
:1010A00001912690E178207901EB810100EB41006C
:1010B000FFF7E5FA019B269AFFF754F92B46289A89
:1010C000FFF750F932463B46FFF74CF942464B4694
:1010D000FFF748F952465B46FFF744F90022294BD7
:1010E000FFF759FA05460E46207864214843617897
:1010F00001EB810100EB4100A1780844FFF7BFFA42
:101100002A463346FFF72EF91F4CC4E9060112495F
:101110001148E631E6300978407801EB810100EBB7
:101120004100FFF7ACFA2B9B029AFFF71BF9C4E9C9
:1011300008018CE6039940F8661F049A4260BDF8E6
:1011400014200281C0F80A100499C0F80E104282DF
:101150009DF8161017E700007A1E0020F168E3885A
:10116000B5F8E43E2D431CEBE2361A3FFCA9F1D260
:101170004D62503F7B14AE47E17A843F9A9999992A
:101180009999B93F00004E4028220020F8B500256B
:101190000446009590F82400012808D0012084F826
:1011A00024002046FFF738FC060002D053E002205E
:1011B000F8BDA06A20F4885040F00200A06202202E
:1011C00000F084FE26490968B1FBF0F0400000E021
:1011D000401E00900028FBD12046FFF781FC2068CC
:1011E000816841F00801816000F0B2FD074608E027
:1011F00000F0AEFDC01B0A2803D9206880680007F4
:1012000015D4206880680007F2D42068816841F016
:101210000401816000F09CFD074612E000F098FD9B
:10122000C01B0A280DD920688068400709D5A06A2C
:1012300020F0020040F01000A06284F82450012049
:10124000F8BD206880684007E8D4A06A20F002005A
:1012500040F00100A06284F824503046F8BD000040
:101260002C000020F8B50024009490F82420254696
:10127000012A12D0012280F824204A681F23072A5D
:101280000DD20668776B521E02EB820293409F4399
:101290000B6893401F43776319E00220F8BD06688E
:1012A0000D2A0AD2376BD21F02EB820293409F4372
:1012B0000B6893401F43376309E0F76A0D3A02EB6E
:1012C000820293409F430B6893401F43F7620A6872
:1012D000072306680A2A0AD3F7680A3A02EB420291
:1012E00093409F438B6893401F43F76008E0376942
:1012F00002EB420293409F438B6893401F43376148
:101300000A68102A01D0112A20D1124B02689A4291
:1013100017D193681B0219D4936843F400039360B8
:101320000968102912D10C490C4A0968B1FBF2F185
:1013300001EB8101490000E0491E00910029FBD129
:1013400004E0816A41F020018162012480F8245088
:101350002046F8BD002401402C00002040420F0030
:1013600000680449884204D103480221006803F060
:101370008DB9704700240140140000207047704769
:101380002DE9F04104004FF000057FD0A06A00264F
:1013900028B9E66284F82460204600F081F82046EF
:1013A000FFF73AFBA16AC90600D420B1A06A40F059
:1013B0001000A0626AE0A16A21F4885141F00201A4
:1013C000A162334923688B42E16904D1B1F5402F12
:1013D00001D14FF40021277B4FF4807C41EA470282
:1013E00061680A43A168614508D0012906D000213F
:1013F00094F814E0BEF1010F02D00AE06146F7E76D
:10140000C7B1A76A47F02007A762E76A47F001075C
:10141000E7625F6827F469470F435F602368996854
:101420001C4F394011439960A16861450BD00129D7
:1014300009D00CE0DFF860E0A7690EEB47370F43F7
:1014400047F40061E5E7218A0D05A5F580152168BF
:10145000CB6A23F470032B43CB62216889680F4B5E
:101460001940914208D1E662A16A21F0020141F0DF
:101470000101A162BDE8F081A06A20F0020040F005
:101480001000A062E06A40F00100E0620120F1E794
:10149000003C0140FDF7E1FF00E0FFFFFE0E1FFFF3
:1014A000F0B585B000250646009501950295039597
:1014B0000068284988424BD12749886940F4007068
:1014C0008861886900F400700490886940F0100019
:1014D0008861886900F010000490886940F0040079
:1014E0008861886900F004000490886940F0080071
:1014F000886188690227032400F00800CDE90074A0
:1015000004906946154800F021FBA120CDE90004B4
:101510006946134800F01AFBCDE90074694611488A
:1015200000F014FB114C1048C4E900058020C4E908
:10153000025040002061800060612020C4E906055F
:10154000204600F07BFA08B1FFF751FC3462666276
:1015500005B0F0BD00240140001002400010014021
:1015600000080140000C0140080002405003002028
:101570002DE9F047894604463B4900683B4F0E1D64
:101580009046884201D0B84207D1306810F4702FDD
:1015900003D001252846BDE8F08794F824000128EF
:1015A0000CD0012084F824002046FFF799FA0500AA
:1015B0004FF0000004D084F82400EBE70220EAE7B3
:1015C000A16A40F60162914341F48071A1622168F1
:1015D000B94218D1326812F4702F14D0A16A41F4C4
:1015E0008011A1623168490505D5A16A21F4005135
:1015F00041F48051A162A16AC9040AD5E16A21F0CF
:101600000601E16206E0A26A22F48012A262496841
:10161000E9E7E06284F82400216A15488862216ABB
:101620001448C862216A1448086321686FF00200F8
:1016300008602068816841F48071816021684346B8
:101640004A464C31206A00F037FA20688168C1F3BD
:1016500042410729816803D041F48011816099E7F4
:1016600041F4A001FAE700000024014000280140F5
:101670006F0A0008D70A0008BD0A000810B590F8E4
:1016800021100022022905D00421816380F8202046
:10169000012010BD01680B6823F00E030B60016888
:1016A0000B6823F001030B6090F84030C46B0121FC
:1016B00001FA03F3636080F8211080F820201046BF
:1016C00010BD00002DE9F05F90F8211000240229E0
:1016D00003D004218163012485E001680A6822F0B7
:1016E0000E020A6001680A6822F001020A603F4E99
:1016F0003E4FB215DFF8F4C0DFF8F090DFF8ECA051
:10170000DFF8E8B0DFF8E4E00168783F1301150284
:10171000ACF1640CA9F15009AAF13C0AABF1280B19
:10172000AEF1140E4FF48018B14227D9B9420ED051
:10173000614512D049451DD0514518D0594518D0A2
:10174000714501D1424615E0294EB14201D1012235
:1017500010E0274E1436B14201D110220AE0244E87
:101760002836B14206D0224A3C32914201D11A4673
:1017700000E02A461E49091F0A602BE0B94213D037
:10178000614517D0494522D051451DD059451DD03E
:10179000714501D142461AE0B14202D14FF0807248
:1017A00015E0134EB14201D1012210E0104E143663
:1017B000B14201D110220AE00D4E2836B14206D0C6
:1017C0000B4A3C32914201D11A4600E02A460749B1
:1017D00080394A60012180F82110002180F8201012
:1017E000416B01B188472046BDE8F09F8000024070
:1017F000080402402DE9F05FC16B0A6801680B68BC
:10180000046C4FF0040808FA04F8844D844E854FA8
:10181000DFF814C2DFF81492DFF814A2DFF814B274
:10182000DFF814E218EA020F65D05FEA437862D568
:101830000A68920603D40A6822F004020A60DFF8FC
:10184000F0814FF48062016808F11408130114025A
:10185000414524D9A9420DD0B1420FD0B9421AD086
:10186000614515D0494515D0514501D1120312E00B
:10187000594501D104220EE0714501D140220AE010
:101880006D4D1435A94206D06B4A2832914201D1E0
:101890001A4600E022466749091F0A6029E0A9426A
:1018A00013D0B14215D0B94220D061451BD0494573
:1018B0001BD0514502D14FF4800217E0414502D1BF
:1018C0004FF0806212E0594501D104220EE07145CB
:1018D00001D140220AE0584D1435A94206D0564A9B
:1018E0002832914201D11A4600E022464B4908397C
:1018F0004A60C16A71E04FF0020808FA04F818EA79
:10190000020F70D05FEA83786DD50A68920606D41C
:101910000A6822F00A020A60012180F82110DFF82B
:1019200010814FF40072016808F1140813011402C9
:10193000414524D9A9420DD0B1420FD0B9421AD0A5
:10194000614515D0494515D0514501D1120312E02A
:10195000594501D102220EE0714501D120220AE051
:10196000354D1435A94206D0334A2832914201D16F
:101970001A4600E022462F49091F0A6029E0A942C1
:1019800013D0B14215D0B94220D061451BD0494592
:101990001BD0514502D14FF4001217E0414502D14E
:1019A0004FF0007212E0594501D102220EE071455C
:1019B00001D120220AE0204D1435A94206D01E4A4A
:1019C0002832914201D11A4600E0224613490839D3
:1019D0004A60002180F82010816A00291CD0BDE8EF
:1019E000F05F0847FFE70825A540154214D01A0705
:1019F00012D50A6822F00E020A6090F84020C36BEC
:101A0000012101FA02F25A60816380F8211000215D
:101A100080F82010016BE0E7BDE8F09F080002406D
:101A20001C000240300002404400024058000240C6
:101A30006C000240080402401C04024030B560B152
:101A40001A4B026814219A4209D2194B1344B3FB72
:101A5000F1F18900016417490AE0012030BD134B00
:101A60005B421344B3FBF1F1890001640F4908396B
:101A7000C163022180F82110136843F6F0718B4393
:101A8000F0E901142143D0E902452C4321430469C4
:101A90002143446921438469214319431160002192
:101AA0004163012242770177084630BD08040240B5
:101AB000F8FFFDBF0000024070B5044690F820001A
:101AC000002501280CD0012084F8200094F8216022
:101AD0000020012E06D084F820000225284670BD83
:101AE000022070BD022684F82160A0632068066889
:101AF00026F0010606602046FFF72CF9E06A002870
:101B00002068016802D041F00E0106E021F00401D6
:101B100001602068016841F00A01016020680168E5
:101B200041F001010160D9E770B5044600F010F9F9
:101B30000546601C02D004480078044400F008F90F
:101B4000401BA042FAD370BD200000202DE9F84FC1
:101B5000DFF8C891002409F1040A0AF1040B2346B6
:101B60000F270BF1040ED1E00125A54006EA05027E
:101B7000AA4276D1DFF8A8C14E68A6EB0C086645EC
:101B80002BD00DDC032E34D005DC36B3012E19D05A
:101B9000022E2FD11BE0112E16D0122E2AD119E0C1
:101BA000B8F5881F19D006DCB8F5803F15D0B8F518
:101BB000801F1FD111E0B8F5001F0ED0B8F5041F2B
:101BC00018D10AE0CB6815E0CB681B1D12E0CB688A
:101BD00008330FE0CB680C330CE08B682BB1012B82
:101BE0004FF0080303D0456104E0042302E00561DF
:101BF00000E00023FF2A01D8064601E000F10406B8
:101C00004FEA840501D9A5F12005D6F8008007FA2E
:101C100005FC28EA0C0803FA05F548EA0508C6F8A9
:101C200000804D68ED0070D53E4DAE6946F001066E
:101C3000AE61AD6924F0030605F0010500953A4D4B
:101C400006EB050CDCF80850A607360F07FA06F875
:101C500025EA0805DFF8D480404503D14FF000089D
:101C600025E052E0DFF8C880404502D14FF001087E
:101C70001DE0DFF8C080404502D14FF0020816E0B9
:101C8000DFF8B480404502D14FF003080FE0DFF8E1
:101C9000AC80404502D14FF0040808E0DFF8A08096
:101CA000404502D14FF0050801E04FF0060808FA60
:101CB00006F848EA0508CCF808804D68D9F80060B5
:101CC000ED034D4601D5164300E096432E604D6866
:101CD000DAF80060AD03554601D5164300E096439F
:101CE0002E604D68DBF80060ED025D4601D51643BD
:101CF00000E096432E604D68DEF80060AD02754648
:101D000001D5164300E096432E60641C0A6816460F
:101D1000E2407FF429AFBDE8F88F000000040140E5
:101D200000001110001002400000014000080140B6
:101D3000000C014000100140001401400018014057
:101D4000001C01400AB1016170470904FBE7000073
:101D50000148806870470000200000200248816828
:101D6000027811448160704720000020074810B5B8
:101D7000016841F010010160032000F095F8002097
:101D800000F006F800F03EF8002010BD00200240F0
:101D900000B5014687B00022362000F065F83620F5
:101DA00000F054F81348C16941F01001C161C069E5
:101DB00005A900F010000690684600F0FDF900F05B
:101DC0001BFA0D494000B0FBF1F10D480B4A491ECA
:101DD0000260416040F2E7320021C0E903218160E6
:101DE00000F0F2FB10B1012007B000BD044800F084
:101DF00019FCF9E70010024040420F0000100040BB
:101E0000A40400200F4808B5816941F001018161F7
:101E1000816901F001010091C16941F08051C16106
:101E2000C069002200F0805000900F21901E00F049
:101E30001BF80548416821F0E06141F00071416004
:101E400008BD00000010024000000140002809DB2E
:101E500000F01F02012191404009800000F1E020C4
:101E6000C0F8001170470000F0B40E4B1B680C4620
:101E7000C3F30223C3F10705042D00D90425191D5E
:101E8000072901D2002300E0DB1E012606FA05F136
:101E9000491E214099409E40761E16403143F0BCB9
:101EA00001F041BD0CED00E0064900F007020868B2
:101EB0004FF6FF03184040EA0220034A104308602F
:101EC000704700000CED00E00000FA0510B52CA4EE
:101ED00001461DCC86B08DE81D002DA02D4C00685C
:101EE0000490002004292FD00BDC01292FD00229D7
:101EF00028D100F091F96168C1F38131491C490092
:101F00001EE0082920D010291CD161682268D20166
:101F100018D5C1F38342C9031DF8020009D56168D1
:101F200004AAC1F34041515C1B4AB2FBF1F14843A2
:101F300001E01A4948436168490203D44000032183
:101F4000B0FBF1F006B010BD00F076F9FAE7226AB6
:101F5000C2F30121012903D1920701D5C803F1E79A
:101F6000022905D1626A920702D549F64040E9E7A5
:101F70000329E7D121688903E4D54FF22440E1E742
:101F800002030405060708090A0B0C0D0E0F1010BA
:101F9000010200000010024000127A0000093D001A
:101FA0002DE9F84305460078354CC00754D0E06968
:101FB0000026C00008D4E06940F08050E061E0698C
:101FC000012600F0805000902E480168C90512D407
:101FD0000168804641F480710160FFF7B9FE074651
:101FE00005E000BFFFF7B4FEC01B642823D8D8F873
:101FF0000000C005F6D5206A10F4407021D0A988F1
:1020000001F4407181421CD0206A1F49012220F452
:1020100040700A6000220A602062C00711D0FFF7FA
:1020200097FE074641F2883808E000BFFFF790FEB0
:10203000C11B414502D90320BDE8F883206A80070F
:10204000F4D5206A696820F44070084320621EB10C
:10205000E06920F08050E0612878800705D560684D
:10206000A96820F44040084360602878C00605D580
:102070006068696920F48000084360600020DBE745
:102080000010024000700040400442422DE9F04739
:102090000F46050061D0434E306800F00700B8429B
:1020A00009D2306820F0070038433060306800F013
:1020B0000700B84251D128683B4C810712D5400730
:1020C00003D5606840F4E06060602878000703D5BD
:1020D000606840F4605060606068A96820F0F000BB
:1020E000084360602878C00728D06868012810D0AD
:1020F0002168022810D0890700292EDA616821F0B2
:10210000030101436160FFF723FE804641F28839F5
:102110000DE021688903EFE78901EDE7FFF718FE7D
:10212000A0EB0801494502D90320BDE8F0876068AB
:10213000696800F00C00B0EB810FEFD1306800F05F
:102140000700B8420BD9306820F0070038433060F0
:10215000306800F00700B84201D00120E5E7287898
:10216000400705D56068E96820F4E06008436060D6
:102170002878000706D56068296920F4605040EA95
:10218000C100606000F058F86168084AC1F30311AB
:10219000515CC8400649086006480068FFF7F8FD32
:1021A0000020C2E700200240001002400862000840
:1021B0002C000020240000200F2202600C4A5368EB
:1021C00003F003034360536803F0F0038360536834
:1021D00003F4E063C36052684FF4E06303EAD202A1
:1021E00002610448006800F00700086070470000C2
:1021F0000010024000200240044805490068496878
:10220000044AC1F30221515CC84070472C000020F1
:102210000010024018620008044805490068496837
:10222000044AC1F3C221515CC84070472C00002011
:10223000001002401862000812A185B00FC98DE895
:102240000F0014A0144A006804905168134801F06C
:102250000C03042B10D0082B0ED1C1F38343C90308
:102260001DF803000AD5516804AAC1F34041515C2E
:102270000A4A5043B0FBF1F005B0704708494843A3
:10228000FAE7000002030405060708090A0B0C0D13
:102290000E0F1010010200000010024000127A0020
:1022A00000093D002DE9F84F040070D02078C04DA2
:1022B000C00749D06868C0F38100012807D068686A
:1022C000C0F38100022809D16868C00306D52868D8
:1022D000800339D560680028E7D035E06068B0F544
:1022E000803F0BD010B1B0F5A02F11D0286820F49A
:1022F00080302860286820F4802002E0286840F4BC
:1023000080302860606890B1FFF722FD06460AE041
:10231000286840F480202860F0E700BFFFF718FD30
:10232000801B642873D828688003F7D50CE0FFF77A
:102330000FFD064605E000BFFFF70AFD801B64287D
:10234000F0D828688003F7D420789A4E80074FF0A1
:1023500001094FF0000839D5686810F00C0F07D05C
:102360006868C0F38100022809D16868C00306D4F8
:102370002868800714D52069012808D110E0206959
:10238000B0B1C6F80090FFF7E3FC074605E00AE1AC
:10239000FFF7DEFCC01B0228C4D828688007F7D5E9
:1023A0002868616920F0F80040EAC10028600DE06B
:1023B000C6F80080FFF7CCFC074604E0FFF7C8FC36
:1023C000C01B022823D828688007F7D4207800078C
:1023D0002CD57948A169D9B1C0F80090FFF7B8FCB5
:1023E000074604E0FFF7B4FCC01B02280FD8686A58
:1023F0008007F7D571484FF4FA510068B0FBF1F04F
:10240000009000BF0098411E0091FAD20EE080E0DB
:10241000C0F80080FFF79CFC074604E0FFF798FC3B
:10242000C01B022875D8686A8007F7D42078400757
:1024300060D5E8690027C00008D4E86940F0805002
:10244000E861E869012700F0805000905C4801686D
:10245000C90513D40168834641F480710160FFF718
:1024600077FC824606E000BFFFF772FCA0EB0A0093
:1024700064284ED8DBF80000C005F5D5E0680128D7
:102480000AD008B1052813D0286A20F0010028627C
:10249000286A20F0040002E0286A40F00100286267
:1024A000E06841F2883B98B1FFF752FC82460BE0AE
:1024B000286A40F004002862EEE700BFFFF748FCFE
:1024C000A0EB0A0159455AD8286A8007F6D50CE0D6
:1024D000FFF73EFC824605E0FFF73AFCA0EB0A015D
:1024E00059454CD8286A8007F6D41FB1E86920F016
:1024F0008050E861E06988B36968C1F3810102290D
:1025000044D00228C6F8608004D0FFF721FC0446BE
:1025100038E034E0FFF71CFC074604E0FFF718FC46
:10252000C01B02282BD828688001F7D4206AB0F598
:10253000803F05D16868A16820F4003008436860D6
:10254000D4E908010843696821F4741108436860FC
:10255000C6F86090FFF7FCFB044606E025E000BFEC
:10256000FFF7F6FB001B022809D828688001F7D581
:102570001BE000BFFFF7ECFB001B022802D9032081
:10258000BDE8F88F28688001F4D40EE00128F7D068
:102590006868226A00F48031914204D1616A00F4D3
:1025A0007010884201D00120EAE70020E8E700002F
:1025B0000010024000004242800442422C000020F1
:1025C000007000407047704710B5040003D094F8C5
:1025D0003D0010B107E0012010BD002084F83C0050
:1025E000204600F01EF8022084F83D00211D2068DE
:1025F00001F032F8012084F8460084F83E0084F8A7
:102600003F0084F8400084F8410084F8420084F8D8
:10261000430084F8440084F8450084F83D0000201D
:1026200010BD704790F83D10012901D0012070477E
:10263000022180F83D100168CA6842F00102CA60B8
:1026400000680E4988420ED00D4988420BD0B0F187
:10265000804F08D00B49884205D00B49884202D0F0
:102660000A49884204D1816801F00701062903D094
:10267000016841F00101016000207047002C014019
:10268000003401400004004000080040000C0040FD
:10269000704770B50446006801694FF00005C943F2
:1026A000890715D4C168C943890711D4E91E01619E
:1026B00001202077206880698007204602D0FFF73C
:1026C000E7FF04E000F098F8204600F096F8257740
:1026D00020680169C943490717D4C168C94349073C
:1026E00013D46FF004010161022020772068806913
:1026F00010F4407F204602D0FFF7CAFF04E000F04C
:102700007BF8204600F079F8257720680169C943F5
:10271000090716D4C168C943090712D46FF008012C
:102720000161042020772068C0698007204602D01C
:10273000FFF7AEFF04E000F05FF8204600F05DF820
:10274000257720680169C943C90617D4C168C94300
:10275000C90613D46FF010010161082020772068AA
:10276000C06910F4407F204602D0FFF791FF04E0DB
:1027700000F042F8204600F040F825772068016913
:10278000C943C90708D1C168C943C90704D1891E13
:102790000161204600F032F820680169C94309064A
:1027A00009D4C168C943090605D46FF080010161ED
:1027B0002046FFF707FF20680169C943490609D48D
:1027C000C168C943490605D46FF040010161204644
:1027D00000F01EF820680169C94389060BD4C1685E
:1027E000C943890607D46FF0200101612046BDE886
:1027F0007040FFF7E8BE70BD70477047006803493E
:10280000884201D1FFF7AABA7047000000100040CB
:10281000704708B5034690F83E0020281CD181B1CE
:102820007AB193F83C00012816D0012083F83C00CF
:102830001863184601F034F8002803D1196B0129F8
:1028400001D0012008BD19680A684A680092CA6868
:1028500042F01002CA6008BD022008BD10B504464F
:1028600000680949884204D108480221006801F043
:102870000DFF07492068884205D106480068BDE879
:10288000104001F0A9BE10BD00480040100000201B
:10289000004C00401C00002070470000F8B50268A2
:1028A00004461068D168536910F00F0F4FF000050F
:1028B00053D003F0010601F4907737435FD0C2078D
:1028C00005D0CA0503D5226C42F0010222644207FA
:1028D00005D5DA0703D0226C42F002022264820797
:1028E00005D5DA0703D0226C42F004022264020705
:1028F00007D501F02002324303D0226C42F00802D7
:102900002264226C002A34D0800604D5880602D5C1
:10291000204600F00DFF20684069216CC0F3801054
:10292000090700D430B3204600F0EAFE2068416970
:1029300049061BD5416921F040014161A06BA8B156
:1029400058494163A06BFEF7BDFE002811D0A06B73
:10295000416B01B0BDE8F040084783060FD58B06F8
:102960000DD52046BDE8F84000F0E2BE2046FFF756
:1029700093FFF8BD2046FFF78FFF2564F8BD266B57
:102980002023012E52D1C60650D5CE064ED5106852
:1029900050680090506940062AD5A16B08684068CD
:1029A0000004000CEAD0A68D8642E7D9E08588694C
:1029B000202818D0D06820F48070D0602068416949
:1029C00021F0010141612068416921F0400141612C
:1029D00084F83E3025632068C16821F01001C16091
:1029E000A06BFEF74BFEA08DE18D401A81B219E07D
:1029F000A08DE18D401A81B2E08D0028BED0002963
:102A0000BCD0D06820F49070D0602068426922F079
:102A10000102426184F83E3025632068C26822F0DA
:102A20001002C2602046FFF719FFF8BD05062BD53E
:102A30000D0629D594F83D002128F6D1A068B0F5FF
:102A4000805F01D12069B0B1206A411C21622168F8
:102A500000784860E08C401E0004000CE084E4D163
:102A60002068C16821F08001C1602068C16841F020
:102A70004001C160F8BD206A0088C0F308005060C2
:102A8000206A801C2062E5E74006F3D54806F1D5B0
:102A9000D168204621F04001D16084F83D3000F03B
:102AA00052F9F8BDF136000870B5040004D094F86E
:102AB0003D00002510B106E0012070BD84F83C50B7
:102AC000204600F023F8242084F83D002068C168E7
:102AD00021F40051C160204600F086FE20680169A3
:102AE00021F4904101612068416921F02A0141618E
:102AF0002068C16841F40051C1602564202084F839
:102B00003D0084F83E00002070BD0000F0B585B0A7
:102B10000024009401940294039403685848574E8B
:102B2000051502210322C714B34225D1C36943F41A
:102B30000023C361C36903F400230493836943F052
:102B4000100383618069CDE9005100F01000CDE9E8
:102B500003204C4D69462846FEF7F8FFCDE9007486
:102B6000694628460294FEF7F1FF00220521342031
:102B7000FFF77AF9342029E0DFF80CC1434E6345B2
:102B800028D1836943F480438361836903F48043DC
:102B90000493836943F0040383618069039200F026
:102BA000040004907015CDE9000169463046FEF737
:102BB000CDFFCDE90054694630460294FEF7C6FFCA
:102BC000002205212520FFF74FF92520FFF73EF9C8
:102BD00005B0F0BDDFF8B8C0634526D1C36943F442
:102BE0000033C361C36903F400330493836943F082
:102BF000040383618069039200F0040004900420C0
:102C0000CDE9000169463046FEF7A0FF0820CDE976
:102C10000004694630460294FEF798FF0022052121
:102C20002620FFF721F92620D0E71A4EB342CFD154
:102C3000C36943F48023C361C36903F4802304930D
:102C4000836943F0080383618069CDE9005100F096
:102C50000800CDE90320104D69462846FEF776FFAF
:102C6000CDE90074694628460294FEF76FFF002202
:102C700005212720FFF7F8F82720A7E7004C0040A0
:102C800000100240001001400038014000080140DF
:102C90000044004000480040000C014090F83E30E5
:102CA000202B0ED159B152B190F83C30012B08D0F5
:102CB000012380F83C300023036300F0F1BD0120C4
:102CC000704702207047000010B5044600680A49AA
:102CD000884204D109480221006801F0D7FC084964
:102CE0002068884206D1074802210068BDE81040EC
:102CF00001F0CCBC10BD00000038014008000020ED
:102D0000004400400C00002090F83D30202B18D1EA
:102D1000A9B1A2B190F83C30012B12D0016282849B
:102D2000C28400210164212280F83D2080F83C10FB
:102D30000068C16841F08001C16000207047012037
:102D40007047022070477047FEE700002DE9F04110
:102D5000AD4CAE4822462378AD4DD279AD4E4FF4FE
:102D6000805104F5EA78552B02D0C12B3AD066E0A9
:102D70006378302B63D1A378202B60D1E378082BC4
:102D80005DD13E2A7DD12279012A0AD0102A13D0A2
:102D9000FF2A11D0C32A12D0AA2A72D1FDF7F0FF60
:102DA0004DE09B490822091D9B48FFF7ADFF042118
:102DB000306802F0B9FA42E000F048FB3FE0002240
:102DC000FEF7C0FF924960790C31487101202870EC
:102DD0006420FEF7A9FE8E4908220C318E48FFF7C9
:102DE00093FF2CE01C2A2AD10122FEF7ABFF2878A2
:102DF000801E082823D2DFE800F004070B0F13160B
:102E00001A1E2821854818E084482821283014E01B
:102E100082482821503010E08048282178300CE08A
:102E20002821404609E07D482821C83005E07B483C
:102E30002821F03001E028217948FDF70CFAE078EC
:102E4000FE281ED1207BFE281BD16F49982201F15C
:102E50009800FDF7E7F96C4C9834A4F15407E0783A
:102E600004F12C05FE2815D1207BFE2812D10A2260
:102E700021466A48FDF7D6F9D7F85E00C5F87A0012
:102E800000E0BEE0D7F86200C5F87E0097F8660063
:102E900085F882006148A17D1030FE2917D1E17FBD
:102EA000FE2914D1D7F867108161D7F86B10C16182
:102EB000B7F86F100184D7F87110C0F82210D7F856
:102EC0007510C0F8261097F8791080F82A1094F839
:102ED0002910FE2914D194F83210FE2910D157F888
:102EE0007A1F0164796841643989A0F848106968DB
:102EF000C0F84A10A968C0F84E10297B80F852101B
:102F000094F83C10FE2917D194F84510FE2913D1EE
:102F1000D5F80D1040F8681FD5F811104160B5F8CC
:102F200015100181D5F81710C0F80A10D5F81B103C
:102F3000C0F80E10E97F8174394F94F84F00883F34
:102F4000FE2815D194F85800FE2811D10A22A7F1C5
:102F5000E0014046FDF766F9D5F82A00C7F81A00E7
:102F6000D5F82E00C7F81E0095F8320087F8220029
:102F700094F86200FE2819D194F86B00FE2815D150
:102F8000D5F83300B863D5F83700F863B5F83B00DF
:102F9000A7F84000D5F83D00C7F84200D5F8410039
:102FA000C7F8460095F8450087F84A0094F8750080
:102FB000FE2815D194F87E00FE2811D155F8460F51
:102FC00047F8600F6868786028893881D5F80A006A
:102FD000C7F80A00D5F80E00C7F80E00A87CB87430
:102FE0000E4D002404EB840005EBC00001F020F935
:102FF000641C082CF6DB3068BDE8F041082102F0C3
:1030000093B9BDE8F0810000B41F0020000C01401E
:10301000A80000200000002094030020E8200020E9
:103020000022002070B5184E184D002404EB8400D7
:1030300006EBC000164901F01DFA00221346C5E94F
:103040000601FDF755FB19D2D5E906010022114B07
:10305000FDF736FB12D200224FF480510E48FEF7E6
:1030600071FE642001F08CFA0849A01C0C31287014
:10307000487108220948FFF747FE01E0FDF780FE8E
:10308000641C082CD2DB70BDE8200020A8000020C2
:103090002822002000004940000C01409403002039
:1030A000FEB500242648009401942449029401604E
:1030B00089158160012606730475052505614FF4A5
:1030C00060214460C161FEF75BF908B1FDF78FFE36
:1030D000CDE900460724694619480294FEF7C2F874
:1030E00008B1FDF784FE0220CDE90050694614487E
:1030F000FEF7B8F808B1FDF77AFE0320CDE90040ED
:1031000069460F48FEF7AEF808B1FDF770FE0920DA
:1031100000900420019069460948FEF7A3F808B121
:10312000FDF765FE0B20CDE9000569460448FEF772
:1031300099F8002801D0FDF75AFEFEBD0024014099
:1031400020030020094808B5416941F001014161AF
:103150004069002200F00100009005210B20FEF7DD
:1031600083FEBDE808400B20FEF770BE0010024051
:1031700010B5ACB000202A902B9001212AA801F0B4
:103180000BFA244CE06102F0C1F820601C222249B5
:103190006846FDF747F80021684601F0D0FA1E495D
:1031A00060601C221C3107A8FDF73CF8002107A82D
:1031B00001F0C5FA1849A0601C2238310EA8FDF7AD
:1031C00031F800210EA801F0BAFA1349E0601C2280
:1031D000543115A8FDF726F8002115A801F0AFFA23
:1031E0000D4920611C2270311CA8FDF71BF800213D
:1031F0001CA801F0A4FA084960611C228C3123A8A4
:10320000FDF710F8002123A801F099FAA0612CB075
:1032100010BD000000000020606100082DE9F043AF
:1032200085B0002424480094019402940394816999
:1032300041F020018161816901F0200104918169DF
:1032400041F010018161816901F0100104918169EF
:1032500041F004018161816901F0040104918169F7
:1032600041F0080181618069012200F00800DFF867
:103270004C801503049029464046FEF763FD012269
:10328000DFF83C90170239464846FEF75BFD009593
:10329000022601250396CDE9015469464046FEF712
:1032A00055FC00970396CDE9015469464846FEF760
:1032B0004DFC05B0BDE8F08300100240000C014059
:1032C000000801400C4810B50A4901604FF416513E
:1032D0004160002181600C22C160C0E9041281615B
:1032E000C161FFF7E1FB002803D0BDE81040FDF706
:1032F0007EBD10BD004C0040940300200C4810B56A
:103300000A4901604FF41651416000218160042296
:10331000C160C0E904128161C161FFF7C5FB0028EB
:1033200003D0BDE81040FDF762BD10BD003801407C
:10333000D80300200C4810B50A4901604FF416511B
:103340004160002181600422C160C0E904128161F2
:10335000C161FFF7A9FB002803D0BDE81040FDF7CD
:1033600046BD10BD004400401C0400200C4810B5B0
:103370000A4901604FF41651416000218160042226
:10338000C160C0E904128161C161FFF78DFB0028B3
:1033900003D0BDE81040FDF72ABD10BD0048004035
:1033A00060040020FEE7FEE72DE9F05F21480024DD
:1033B000DFF884B00168C0F80A104268C0F80E2037
:1033C00002894282254600F114094FF0663A00F165
:1033D000200700F1340800F13E06416139F814007D
:1033E000FDF74DF952465B46FDF763F8FDF798F996
:1033F0001249FCF76DFF47F824001149FCF736FF2E
:103400001049FCF733FF1049FCF762FFFDF744F960
:1034100028F814007055000A71190A2D487002D25C
:10342000AD1CEDB200E00025641CE4B2052CD5D340
:10343000BDE8F09F5022002066660A4000F07F45FC
:103440000000164300007A440000CC42012080F3C3
:103450001388BFF34F8F05480168054A01F4E06106
:1034600011430160BFF34F8F00BFFDE70CED00E09B
:103470000400FA050EB54FF0FF344222084909480E
:10348000FFF70CFC22460221684601F02DF9019855
:10349000800701D5FDF762FB012001F071F8ECE730
:1034A000E71D00201C0400200EB54FF0FF34202241
:1034B00008490948FFF7F2FB22460221684601F05D
:1034C00013F90198800701D5FDF700FC012001F0F8
:1034D00057F8ECE74A1E0020D80300200EB54FF045
:1034E000FF34642208490948FFF793F92246022174
:1034F000684601F0F9F80198800701D5FDF77AFCDC
:10350000012001F03DF8ECE77A1E00206004002065
:10351000094D4FF0FF34982208490948FFF779F91F
:103520002146E86901F080F808B9FFF70FFC022096
:1035300001F026F8EFE7000000000020B41F002093
:10354000940300200EB5052209490A48FEF710F839
:103550004FF0FF3422460221684601F0C5F8019879
:10356000800701D5FFF720FF012001F009F8F1E7FE
:10357000502200202003002008B5094E4FF0FF34F0
:103580004FF416750094012300220C21306801F0DD
:1035900011FF08B1FFF746FD284600F0F1FFF1E703
:1035A0000000002010B5502080F31188BFF34F8F2A
:1035B000BFF36F8F02F0F8FB18B104494FF0805051
:1035C0000860002080F3118810BD000004ED00E0C9
:1035D00030B595B028216846FCF73DFE14210AA8B5
:1035E000FCF739FE18210FA8FCF735FE012108046D
:1035F000CDE900100025029502240491CDE9074091
:103600004FF4E01009906846FEF74CFE08B172B620
:10361000FEE70AA90F2081E831004FF48060CDE970
:103620000D0502210AA8FEF731FD08B172B6FEE7CA
:103630004FF4004011900F940FA8FEF7B1FC002842
:1036400001D072B6FEE715B030BD70470148FFF7F4
:1036500020B80000A4040020F0B502681C4B1D4DEA
:103660001D4E1E4F1E4C4FF0804C984209D0A04278
:1036700007D0604505D0A84203D0B04201D0B8427F
:1036800004D122F0700E4A6842EA0E02984209D034
:10369000A04207D0604505D0A84203D0B04201D077
:1036A000B84203D122F44075CA682A434D6922F01A
:1036B00080022A4302608A68C2620A688262984273
:1036C00001D0A04201D10969016301214161F0BD2E
:1036D000002C01400004004000080040000C0040A5
:1036E000003401400148FFF7D9B8000094030020DE
:1036F00010B5406A0021C185C184FFF7CDF810BD27
:103700000168CA6822F49072CA6001684A6922F0AE
:1037100001024A61016B012904D10168CA6822F0E3
:103720001002CA60202180F83E100021016370471A
:1037300008B590F83E10222901D0022008BD826809
:103740004FF480539A4201D1016921B1816A9A42B2
:103750001BD04AB10AE00268816A5268C2F30802CB
:103760000A80816A891C08E0026972B102685268A5
:1037700002F07F020A70816A491C8162C18D491E74
:103780000904090CC18503D019E002685268F1E709
:103790000168CA6822F02002CA600168CA6822F47F
:1037A0008072CA6001684A6922F001024A612021E0
:1037B00080F83E10016B012903D0FFF785FA002045
:1037C00008BD002101630168CA6822F01002CA60C6
:1037D00001680A68D20602D50A6849680091818D9D
:1037E000FFF73CF8EBE7000070B50446006801699C
:1037F000E26821F44051114301612169A068084346
:10380000616908432168CA6841F20C639A43024324
:10381000CA6020684169A26921F440711143416185
:103820001E492068884202D1FEF7F6FC01E0FEF74F
:10383000E3FC00EBC00101EB001260686421800032
:10384000B2FBF0F3B3FBF1F36FF018067343B2FB76
:10385000F0F5B2FBF0F605EB8305322303EB05151B
:10386000B5FBF1F5B6FBF1F605F0F00505EB061535
:10387000B2FBF0F6B2FBF0F0B0FBF1F06FF0180223
:10388000504306EB800003EB0010B0FBF1F0216821
:1038900000F00F002844886070BD0000003801402F
:1038A00081628285C28500210164222280F83E2047
:1038B00080F83C100168CA6842F48072CA600168EE
:1038C0004A6942F001024A610068C16841F0200182
:1038D000C1600020704700000148FEF7DFBF000014
:1038E000D80300200148FEF7D9BF00001C040020C7
:1038F0000148FEF7D3BF000060040020FEE7490046
:1039000050EAC12018BF04204A0D18BF40F0010042
:1039100040F2FF72B2EB515F08BF40F00200012895
:1039200008BF052070470907090E002804DB00F1D5
:10393000E02080F80014704700F00F0000F1E02054
:1039400080F8141D704700002DE9F74F144694B01D
:103950000021C4E902111599079121F00045C949D8
:103960008D4206DC1599C4E9000117B00020BDE8BE
:10397000F08FC549DFF814A3A9423CDD0799C44E76
:103980000029C44FC44A1599534619DDFCF78BFD35
:10399000554506D0C14AC24BFCF785FDC4E900017C
:1039A0000AE04FF0D352BE4BFCF77DFD32463B465A
:1039B000FCF779FDC4E9000117B00120BDE8F08FE4
:1039C000FCF7D0FC554506D0B44AB54BFCF7CAFC11
:1039D000C4E900010AE04FF0D352B14BFCF7C2FC3E
:1039E00032463B46FCF7BEFCC4E9000117B04FF07D
:1039F000FF30BDE8F08FAB49A942159978DB21F083
:103A0000004183468846A84AA84BFCF752FD002295
:103A1000A74BFCF7A7FCFCF7DFFF0990FCF7CBFFF7
:103A200006460F469C4A5346FCF743FD43465A461A
:103A3000FCF73CFD80468A46984A994B3046394609
:103A4000FCF737FD2A0D01250B9242465346FCF741
:103A50002DFD032DC4E9000139D00B98C1F30A51A3
:103A6000401A05EB45111139814230DA9148C346BD
:103A7000784400EB0510CDF80CA00C90D0E90023A1
:103A800030463946FCF715FD02460B460491069078
:103A900058460399FCF707FD80468A4602460B46C6
:103AA00058460399FCF7FFFC049B069AFCF7FBFCC5
:103AB00083460C9803913946D0E902233046FCF73F
:103AC000F8FC5A46039BFCF7EEFC6D1CBDE707981B
:103AD0000028A2BF099817B0BDE8F08F616881F097
:103AE00000416160099817B04042BDE8F08FFFE7E0
:103AF00084461598C1F31301C0F30A50A0F2F530C3
:103B00004FEA601800F01F06C6F120001390002055
:103B10000690079041F4801E05206D4676B1664AF6
:103B200008EB00017A4452F8213002EB8101B340E6
:103B30004A68139922FA01F1194305E05F4908EB3D
:103B40000002794451F82210A1FB0E27A1FB0C13AF
:103B50001A449A4234BF0123002303EB070A05EB02
:103B60008003D3E901B70F448F4234BF0121002104
:103B700093448B4411B1934502D903E0934501D29C
:103B8000012100E00021C3E901B7514445F82010AC
:103B9000011EA0F10100C1DC0298059F00F1005058
:103BA000800F12900298DDE903568000FCF703FFB6
:103BB000834628460D91FCF762FD6FF01D02FCF76D
:103BC00080FECDE90E013046FCF759FD6FF03D0255
:103BD000FCF777FE80468A463846FCF750FD6FF0CA
:103BE0005D02FCF76EFE0746424653461191FCF714
:103BF000B9FBDDE90E23FCF7B5FB5A460D9BFCF73C
:103C0000B1FB00250E465A4628460D9BFCF74BFC9F
:103C1000DDE90E23FCF747FC42465346FCF743FC24
:103C20003A46119BFCF742FCDFF898A0244A534621
:103C3000FCF73FFC07468846234A244B314628467A
:103C4000FCF737FC3A464346FCF78CFB07468846B0
:103C50004FF0A842534631462846FCF72AFC3A4624
:103C60004346FCF77FFB159A12F0004F04D0129ADE
:103C700081F0004152421292C4E90001129817B03B
:103C8000BDE8F08FFB21E93F7CD90240FB21F93FE1
:103C90007370032E8A19A33B000040543163621AEB
:103CA00061B4D03DFB21394183C8C96D305FE43F29
:103CB0000000E03F2C280000A82700008A27000011
:103CC000182D4454FB21F93D3326A611460B113C17
:103CD0002DE9FF4D21F0004807460C46B8F1795F09
:103CE00008DAFCF779FE002801BF0020324904B051
:103CF000BDE8F08D3A46234610461946FCF7D9FB3D
:103D0000054602462D480E460B460621784400F033
:103D10005DF82A463346FCF7CCFBDDE902238246F8
:103D20008B4638462146FCF7C4FB04460F465246F4
:103D30005B4628463146FCF7BCFB22463B46FCF777
:103D4000B2FB07468A464FF0FF3228463146FCF761
:103D5000B8FD1B4A90450ADA3A465346FCF7A3FBE6
:103D600004B00022BDE8F04D134BFCF79FBB154A91
:103D70004245A8BFA8F500154FF00004B8BF124D8A
:103D800022462B46FCF78FFB0646884622462B46EA
:103D900000200949FCF787FB04460D463A46534686
:103DA00030464146FCF77FFB04B022462B46BDE877
:103DB000F04DFCF77BBB00000000F03F60250000E9
:103DC0003333D33F0000E93F0000D23F2DE9F041FB
:103DD0004F1E00EBC7010446D1E9000115461E46FF
:103DE00037F006020DD02A463346FCF762FB7F1EF1
:103DF00004EBC703D3E90023FCF7B4FA37F006025B
:103E0000F1D1022F25D0042F13D0062F18BFBDE803
:103E1000F0812A463346FCF74CFBD4E90A23FCF731
:103E2000A1FA2A463346FCF744FBD4E90823FCF701
:103E300099FA2A463346FCF73CFBD4E90623FCF703
:103E400091FA2A463346FCF734FBD4E90423FCF705
:103E500089FA2A463346FCF72CFBD4E90223FCF707
:103E600081FA2A463346FCF724FBD4E90023BDE857
:103E7000F041FCF777BA00002DE9FF4D054621F02F
:103E8000004084B00C46B0F1795F0BDA2846FFF7AA
:103E900036FD042808BF00F06FF8284608B0214618
:103EA000BDE8F08D2A460B461046FCF702FB06469D
:103EB0000F462A462346FCF7FCFA804626488A46E7
:103EC00032463B4605217844FFF780FF8346109831
:103ED000029160B3214A224B40465146FCF7E9FA71
:103EE000CDE900015A4640465146029BFCF7E1FAF3
:103EF00082468846DDE906014FF0FF32FCF7E1FC1F
:103F000052464346FCF7CFFA32463B46FCF7D1FA1D
:103F1000DDE90623FCF7C7FADDE90023FCF7C3FA65
:103F200008B02A462346BDE8F04DFCF7BFBA0B4661
:103F30005A4630463946FCF7BCFA084A084BFCF7AB
:103F400011FA42465346FCF7B4FA08B02A46234613
:103F5000BDE8F04DFCF706BA9E24000049555555C2
:103F60005555C5BF0122FCF7ACBC002213461046D4
:103F70001146FCF710BB0000024A00201107FCF7B5
:103F8000A0BC000001FDFFFF02E008C8121F08C12D
:103F9000002AFAD170477047002001E001C1121FCA
:103FA000002AFBD1704700000149086070470000FB
:103FB000C80000202DE9F04D0546DFF8388221F0D9
:103FC00000408D4F82B00C46404520DBA0EB08013D
:103FD00029430BD08949884201DC10D17DB102B060
:103FE00028462146BDE8F04DFFF7BCBF002CC7BFF7
:103FF000002001468248394602B0BDE8F08D01201C
:10400000FFF7D2FF02B0BDE8F04DFFF7AEBF7D492C
:10401000884244DA7C498142A1BF79487B4902B099
:10402000BDE8F08D2A46234610461946FCF741FAB2
:104030008346024676480E460B4606217844FFF733
:10404000C5FE5A463346FCF734FA074671488A469D
:104050005A46334604217844FFF7B8FE5A463346A1
:10406000FCF727FA00224346FCF77CF902460B4690
:1040700038465146FCF78FFA2A462346FCF719FAD0
:10408000654A664BFCF712FA2A462346FCF70EFAFD
:1040900002B05B4ABDE8F04D5C4BFCF707BA002C60
:1040A0004FF000024BDA4646434628462146FCF7CD
:1040B00059F94FF0FF32FCF704FC04460246584819
:1040C0000D460B4606217844FFF780FE22462B461C
:1040D000FCF7EFF9804653488A4622462B460421D6
:1040E0007844FFF773FE22462B46FCF7E2F90022E4
:1040F0003346FCF737F906468B462046294600F042
:1041000067FE04460D4632465B4640465146FCF784
:1041100042FA22462B46FCF7CCF93F4A3F4BFCF7CC
:10412000C2F922462B46FCF71DF90122FCF7C9FB18
:1041300002B03B46BDE8F04D314AFCF7B7B92D4B14
:1041400028462146FCF7B2F94FF0FF32FCF7B9FBE5
:1041500005460E4600F03CFE00270C4680463A46D7
:104160000B46FCF7FFF882468B463A46234610463C
:104170001946FCF79EF92A463346FCF797F9524652
:104180005B46FCF708FA824627488B462A463346A8
:1041900006217844FFF71AFE2A463346FCF789F9D0
:1041A000CDE9000121482A46334604217844FFF72F
:1041B0000DFE2A463346FCF77CF900220D4BFCF736
:1041C000D1F802460B46DDE90001FCF7E4F942466E
:1041D0002346FCF76EF952465B46FCF7C3F83A46B5
:1041E0002346FCF7BFF802B00122BDE8F04DFCF712
:1041F00068BB00000000F03FFB2109400000F07F99
:10420000182D44540000E03F0000603CFB21F93FC2
:10421000E0210000F6210000075C143326A6913C43
:10422000562100006C2100008A200000A020000020
:104230002DE9F04F04468FB0807CFCF720FA5A4AF3
:104240005A4BFCF736F907468A46607CFCF717FAAA
:10425000574A584BFCF72DF981468B46207CFCF7DA
:104260000EFA554A554BFCF724F980460E46E07B82
:10427000FCF705FA524A534BFCF71BF90A900D461E
:10428000A07BFCF7FCF9504A504BFCF712F9019166
:104290000890607BFCF7F3F94D4A4E4BFCF709F9A7
:1042A000CDE90601A17AE07A01EB810100EB410042
:1042B000FCF7E5F9DDE90623FCF754F8019B089AC1
:1042C000FCF750F82B460A9AFCF74CF84246334666
:1042D000FCF748F84A465B46FCF744F83A46534632
:1042E000FCF740F8C4E90801607AFCF7C8F92E4AE7
:1042F0002E4BFCF7DEF8CDE90C01207AFCF7BFF974
:104300002B4A2C4BFCF7D5F882468B46E079FCF71C
:10431000B6F9294A294BFCF7CCF806468946A0791C
:10432000FCF7ADF9264A274BFCF7C3F8054688464B
:104330006079FCF7A4F9244A244BFCF7BAF8CDE9DC
:1043400004012079FCF79BF9214A224BFCF7B1F8D4
:1043500007460391207864214843617801EB81018D
:1043600000EB4100A1780844FCF789F93A46039B29
:10437000FBF7F8FFDDE90423FBF7F4FF2A46434689
:10438000FBF7F0FF32464B46FBF7ECFF52465B462D
:10439000FBF7E8FFDDE90C23FBF7E4FFC4E90601C6
:1043A0000FB0BDE8F08F00008DEDB5A0F7C6B03EB0
:1043B000F168E388B5F8E43E2D431CEBE2361A3F82
:1043C000FCA9F1D24D62503F7B14AE47E17A843FA5
:1043D0009A9999999999B93F00B5244B21F00042D7
:1043E00087B09A42DCBF0022134629DD204B9A4257
:1043F00008D140B94FF00100FFF7D6FDFFF7B5FD3A
:1044000007B000BD03DBFFF7ADFD07B000BD02AA9A
:10441000FFF79AFA10F0030104BF0DF1080C9CE8B5
:104420000F000DD0012001290ED0022914D00DF16A
:10443000080C00909CE80F00FFF71EFD07B000BDC0
:10444000FFF746FC07B000BD0DF1080C00909CE89A
:104450000F00FFF711FD05E00DF1080C9CE80F00BF
:10446000FFF736FC07B081F0004100BDFB21E93FBA
:104470000000F07F2DE9FC5F0D460446D5E90601FA
:1044800000F0CCFCCDE90001D5E9080100F0C6FC44
:1044900006460F46D4E9060100F0C0FC8046894676
:1044A000D4E9080100F0BAFC04460D4600F040FCD7
:1044B00082468B463046394600F03AFC52465B460F
:1044C000FBF7F7FF82468B46DDE9000142464B468B
:1044D000FBF7E9FFFFF780FF804689462046294623
:1044E000FFF77AFF04460D4630463946FFF774FF62
:1044F00022462B46FBF7DDFF42464B46FBF7D9FF32
:1045000052465B46FBF72EFFFFF754FD02B0002238
:10451000BDE8F05F014BFBF7CCBF000000E3B84003
:10452000EFF30580002800D001207047FDF71EFC46
:10453000FFF74EF8FEF772FEFEF704FEFEF7C2FE2E
:10454000FEF7DCFEFEF7F6FEFEF710FFFEF7A8FD15
:1045500000224FF480710548FDF7F4FB0448FCF796
:1045600015FEFEF705FE00F012F8FEE70008014018
:104570002003002001460020842900D0C81C704779
:1045800010B500B9012000F055FD002010BD10B598
:1045900000F050FE002010BD38B543684BB1012932
:1045A00009D10320002200901146012000F0FEFFF7
:1045B00038BD012901D0002038BD0322002101208F
:1045C00000F0D0FF040004D000231A46194601F081
:1045D00065F8204638BD000038B500240546009433
:1045E000FFF79EFF90B16946284601F007F90128C0
:1045F00001D0FF2038BD009888B10A494FF08050A3
:104600000860BFF34F8FBFF36F8F08E000231A4697
:104610001946284601F042F8012800D0FF24204620
:1046200038BD000004ED00E038B505004FF0000093
:1046300000900FD00024481C0ED001B10C46FFF7AB
:104640006FFFB8B16A460021284601F025F901281C
:1046500016D104E0802038BD4FF0FF34EFE700981A
:1046600080B109494FF080500860BFF34F8FBFF30E
:104670006F8F07E02146284601F05CF9012801D040
:10468000FF2038BD002038BD04ED00E0FEB5064631
:1046900000200D4602900190FFF742FF4FF00044CA
:1046A00098B102A8009001AB01222946304601F0E2
:1046B000F5FA012811D1029888B10A49E00808608A
:1046C000BFF34F8FBFF36F8F09E001AB0122294683
:1046D000304601F07DFA012801D02046FEBD019848
:1046E000FEBD000004ED00E0FEB5002506460F46C5
:1046F0002C460195501C06D002B11446FFF710FF5E
:1047000020B1822015E04FF0FF34F7E72346394609
:10471000002001AA01F0ACFB012804D00CB140201C
:1047200007E0009506E00198002801DA862000E005
:10473000082000909DE8070086E80700FEBD7FB5D1
:104740000D4604464169B0F9080081B1A16971B113
:10475000FFF710FFD4E905128DE80700D4E9001037
:104760002B46226901F009FA039004B070BDFFF7EF
:1047700001FF03A9CDE90001208A2B4682B2D4E9CA
:10478000001001F0CDF9012801D00020EDE70398D9
:10479000EBE700002DE9F041184C0F46054666692D
:1047A0002068001D00F04CFB38B9206890F82C10F0
:1047B00001208840A1698143A161681C07D137B1FC
:1047C0002168BDE8F0410E48091D00F089BB206852
:1047D0003544B5424560216805D2A068BDE8F04186
:1047E000091D00F065BB6068091D00F061FB206BCE
:1047F000854200D22563BDE8F08100003000002032
:10480000C80500202DE9F041054600F075FB2E4C4F
:104810002069401C206120682C4F10B1E06940B332
:104820002DE025602069012829D1002606EB8600AD
:1048300007EB800000F02EFB761C072EF6D32348F2
:104840008C3000F027FB2148A03000F023FB1F48EC
:10485000B43000F01FFB1D48C83000F01BFB1B48A4
:10486000DC3000F017FB19488C3060601430A06019
:1048700005E02068E96AC06A884200D82560E06ADD
:10488000401CE062E96A0120A26988401043A061EF
:1048900001EB810007EB8000291D00F021FB00F0F7
:1048A0004BFBE06900280CD02068E96AC06A8842A6
:1048B00007D207494FF080500860BFF34F8FBFF316
:1048C0006F8FBDE8F081000030000020EC04002074
:1048D00004ED00E030B4026C0B46002A0BD0C16836
:1048E0001144C1604468A14201D30168C16030BC79
:1048F0001846FBF797BC30BC70472DE9F041856B3B
:10490000174604460026026C82B1C7B1E068FBF787
:1049100089FCE168206C091AE1602268914202D2A8
:104920006168081AE060022F16D017E02068A8B965
:10493000606801F0E3FA0646002060600EE0A068BF
:10494000FBF770FC216CA0680844A0606168884295
:1049500004D32068A06001E005B16D1E6D1CA56345
:104960003046BDE8F08110B5044690F8510058B1CA
:1049700001280CD002280FD0502080F31188BFF3FB
:104980004F8FBFF36F8FFEE7206B00F0E9FA2046F0
:10499000BDE8104000F0E4BA10BD000010484FF42C
:1049A000C051420706D0C01D0D4920F00700411A32
:1049B000C1F5C0510B4A00230144C2E90003083984
:1049C000103A21F0070111604B600B600B1AC0E92F
:1049D000001393604FF000405360D06070470000B8
:1049E000DC0500207C000020144E154CA6F1C80701
:1049F0004FF08058DFF84C9012E000BF00F07CFAD6
:104A0000F068C568281D00F01BFA2069401E20616F
:104A1000E068401EE06000F08FFA2846FFF7A3FF31
:104A2000E0680028EAD138680128F9D9C9F800807F
:104A3000BFF34F8FBFF36F8FF2E70000B405002084
:104A40003000002004ED00E00346009829B1026028
:104A5000C0E90F31012100F0DDBD0060F8E72DE96C
:104A6000F0479A46DDE9098481466FF00303206B25
:104A700003EB82021044089D20F00706700707D060
:104A8000502080F31188BFF34F8FBFF36F8FFEE785
:104A900023180A5C83F834200A5C12B1401C1028E9
:104AA000F6D3002784F84370072D00D30625E5626E
:104AB000C4E91157201D00F0F8F904F1180000F0C6
:104AC000F4F92461C5F107006462A061E76484F829
:104AD000507052464946304600F018F92060B8F14F
:104AE000000F01D0C8F80040BDE8F08730B511498B
:104AF00000E011460A688242FBD34B685C1884428E
:104B000003D1406818444860084643681C18944222
:104B100009D1084C103C2468A24209D052681A44BA
:104B200042600A6812680260814200D0086030BDAD
:104B30000460F9E77C00002010B5044600F0DCF9C1
:104B4000A06B28B15FF0000400F0F6F9204610BD1C
:104B50000124F9E706484168096829B14168C96834
:104B6000C9684968016370474FF0FF31FAE70000F8
:104B70003000002008484068401C4FF0500080F38F
:104B8000118804D0BFF34F8FBFF36F8FFEE7BFF3E1
:104B90004F8FBFF36F8FFEE7840000200346002095
:104BA00012B1994302D070470B42FCD001207047EC
:104BB0002DE9F041044600F09FF994F9455004F1C5
:104BC000240609E0606A48B1304601F02DFA08B1C8
:104BD00000F05EFA6D1E6DB2002DF3DC4FF0FF3673
:104BE00084F8456000F0A8F900F086F994F9445083
:104BF00004F1100709E0206948B1384601F014FAC1
:104C000008B100F045FA6D1E6DB2002DF3DC84F89A
:104C10004460BDE8F04100F08FB900002DE9F0419B
:104C20000546002700F03CFB314E306808B9FFF71D
:104C3000B5FEF06805424BD1C5B3083568070ED004
:104C400005F00700C0F108000544680707D05020B0
:104C500080F31188BFF34F8FBFF36F8FFEE72DB343
:104C60007068854234D82248103001460C6801E053
:104C700020460C466168A94202D221680029F7D17A
:104C800031688C4224D00768216801606068083769
:104C9000411B10290FD96019420708D0502080F31A
:104CA0001188BFF34F8FBFF36F8FFEE710E04160B5
:104CB0006560FFF71BFF61687068401A7060B2683A
:104CC000904200D2B060F06801430020C4E90001C6
:104CD00001F0E4F9780707D0502080F31188BFF382
:104CE0004F8FBFF36F8FFEE73846BDE8F0810000BD
:104CF0006C0000200449086818B10868826C521CD6
:104D000082640868704700003000002010B5031F5F
:104D10004FF080741C601B1F21F001011960191FE6
:104D2000024B0B60143940380A6010BD754B000807
:104D300000B5254B21F0004287B09A4203DC0022E7
:104D4000134600922BE0214B9A4208D140B94FF014
:104D50000100FFF729F9FFF708F907B000BD03DBF1
:104D6000FFF700F907B000BD02AAFEF7EDFD10F055
:104D700003014FF001000DD0012914D002291AD0EF
:104D80000DF1080C9CE80F00FEF7A2FF07B081F0C0
:104D9000004100BD0DF1080C00909CE80F00FFF7EA
:104DA0006BF807B000BD0DF1080C9CE80F00FEF792
:104DB0008FFF07B000BD0DF1080C00909CE80F00BC
:104DC000FFF75AF8E2E70000FB21E93F0000F07F1F
:104DD0002DE9F04106460F46FBF79CFD041E0D46EB
:104DE00018BF0120284320F00040C0F17F6000F18F
:104DF000E040C00F0ED0301C18BF0120384320F017
:104E00000040C0F17F6000F1E040C00F04BF01200E
:104E1000FFF7CAF820462946BDE8F08110B5054ADB
:104E2000054BFBF746FBBDE810400022034BFBF7A8
:104E3000B2BB00004AD8124DFB21094000806640F9
:104E4000D0E9013201699A60D0E901235A604A68C9
:104E5000824201D182684A60002202610868401ED5
:104E60000860086870470000044908680A6880699B
:104E7000D26A0968C2F107028A61704730000020D7
:104E8000034B036003F154000860802010607047FA
:104E9000CC00002000F108014FF0FF32C0E9011200
:104EA000C16001610021016070470021016170470C
:104EB00030B50B685A1C02D000F1080202E002690A
:104EC00004E02246546825689D42FAD953684B6035
:104ED00099608A60516008610168491C016030BDB9
:104EE00042684A6093688B6093685960916008617A
:104EF0000168491C01607047502080F31188BFF39E
:104F00004F8FBFF36F8F0A494868401C48600128E3
:104F10000CD10848006810F0FF0F07D0502080F334
:104F20001188BFF34F8FBFF36F8FFEE7704700000C
:104F30008400002004ED00E00849486828B1401EC4
:104F4000486001D180F311887047502080F31188A8
:104F5000BFF34F8FBFF36F8FFEE700008400002088
:104F600070B5002827D0144DA0F108046168E868E6
:104F7000014207D1502080F31188BFF34F8FBFF358
:104F80006F8FFEE722683AB1502080F31188BFF39B
:104F90004F8FBFF36F8FFEE78143616000F080F9B0
:104FA00060686968084468602046FFF79FFDBDE8B7
:104FB000704001F073B870BD6C0000204FF0E0202D
:104FC00000210161816105494FF47A720968B1FBE2
:104FD000F2F1491E41610721016170472C00002058
:104FE00010B5FBF7F9F8114910280ED300F1E020B5
:104FF00090F8F0030A78904207D2502080F311888D
:10500000BFF34F8FBFF36F8FFEE7094800688968D1
:1050100000F4E060884207D9502080F31188BFF384
:105020004F8FBFF36F8FFEE710BD0000840000209C
:105030000CED00E010B5020014D00F48806B38B1C1
:10504000502080F31188BFF34F8FBFF36F8FFEE7BF
:1050500000F026F900211046FFF79CFB01F01EF836
:10506000002807D105494FF080500860BFF34F8FEB
:10507000BFF36F8F10BD00003000002004ED00E092
:1050800002498A6A02604969416070473000002025
:1050900001490120486270473000002010B50C46DD
:1050A00050B1094909681831FFF702FF2046BDE8F1
:1050B00010400121FFF76EBB502080F31188BFF331
:1050C0004F8FBFF36F8FFEE73000002010B51446FE
:1050D000030011D01048826BB2B1026841F0004168
:1050E0009161016818461831FFF7FAFE2046BDE8C5
:1050F00010400121FFF74EBB502080F31188BFF311
:105100004F8FBFF36F8FFEE7502080F31188BFF3FE
:105110004F8FBFF36F8FFEE73000002070B50400A3
:105120004BD0A26CA2B1606C884200D30146E06A09
:10513000884242D0012A40D1204D2A6894420FD1A2
:10514000502080F31188BFF34F8FBFF36F8FFEE7BE
:10515000502080F31188BFF34F8FBFF36F8FFEE7AE
:10516000E162A269002A02DBC1F10701A161144ECC
:1051700000EB8000616906EB800081421DD1201D9B
:10518000FFF75EFE012150B9E06A00EB800256F89D
:10519000222022B9AA6901FA00F08243AA61E06ADA
:1051A000AA6981401143A96100EB800006EB8000F1
:1051B000211DBDE87040FFF793BE70BD3000002098
:1051C000EC04002070B5194EB26BFAB141F0004109
:1051D0000160C46814B3FFF733FE201DFFF730FEF3
:1051E000E16A0125B26905FA01F01043B06101EBF3
:1051F00081000F4901EB8000211DFFF771FEE06A7D
:105200003168C96A884200D9756270BD502080F348
:105210001188BFF34F8FBFF36F8FFEE7502080F3ED
:105220001188BFF34F8FBFF36F8FFEE73000002070
:10523000EC04002010B586B00024039405AA04A94C
:1052400003A80494FFF71CFEDDE903010094CDE9F7
:10525000011000230EA11048059A00F08EFC0F49A2
:105260000028486311D0502080F31188BFF34F8F7E
:10527000BFF36F8F4FF0FF3008630120C8614C61AE
:1052800006B0BDE8104000F019B906B010BD00002E
:1052900049444C4500000000E94900083000002066
:1052A0000248816B491C8163704700003000002078
:1052B0001448816B11B101214162704700214162A4
:1052C0008169B1FA81F1C1F11F0101EB81020E493F
:1052D00051F822306BB101EB820101F108034A68F9
:1052E00052684A609A4201D152684A60D1680160AE
:1052F0007047502080F31188BFF34F8FBFF36F8F3B
:10530000FEE7000030000020EC04002070B51C20F7
:10531000FFF784FC040005D00025201D2560FFF761
:10532000B9FD2576204670BD2DE9F041002788465D
:1053300004000AD05FEA18600FD0502080F3118873
:10534000BFF34F8FBFF36F8FFEE7502080F31188BC
:10535000BFF34F8FBFF36F8FFEE7261D04F10C05DF
:10536000FFF79EFF2168F06841EA0801216017E01D
:10537000D0E9001601F07F425301236821F07F41FC
:1053800002D40B4203D10AE031EA030307D1D20170
:1053900000D50F43216841F00071FFF713FF30463D
:1053A000A842E5D12068B843206000F077FE20686D
:1053B000BDE8F0812DE9F0479A46DDF8209090464F
:1053C0000D4604004FF0000709D0280E0FD05020E2
:1053D00080F31188BFF34F8FBFF36F8FFEE750202C
:1053E00080F31188BFF34F8FBFF36F8FFEE71DB1BE
:1053F00000F0CCFC40B112E0502080F31188BFF3E4
:105400004F8FBFF36F8FFEE7B9F1000F07D0502029
:1054100080F31188BFF34F8FBFF36F8FFEE7FFF765
:105420003FFF2668524629463046FFF7B7FB30B1AA
:10543000B8F1000F1AD02068A843206016E0B9F137
:10544000000F13D0B8F1000F01D04FF08077BAF100
:10545000000F01D047F0806745EA07014A46201D4A
:10546000FFF734FE00F01AFE18B10AE000F016FE55
:105470001FE011494FF080500860BFF34F8FBFF31A
:105480006F8FFFF7F1FC0646800110D4FFF734FD63
:105490002668524629463046FFF780FB28B1B8F10E
:1054A000000F02D02068A8432060FFF745FD26F0DA
:1054B0007F463046BDE8F08704ED00E01CB5264984
:1054C00008780190FF20087008788DF800009DF89A
:1054D00000009DF8002000F0F000904207D050201E
:1054E00080F31188BFF34F8FBFF36F8FFEE79DF8F6
:1054F00000001A4B00F0500018700720986005E07B
:105500009DF8002052008DF80020401E9DF80020DC
:105510001206F5D49860032807D0502080F3118834
:10552000BFF34F8FBFF36F8FFEE74FF4407098606B
:10553000019808700A48016841F47001016001682F
:1055400041F070410160FFF739FD00205860FAF723
:105550000DFE00201CBD000000E400E084000020DF
:1055600020ED00E0F8B517460E46050014D0DEB178
:1055700005FB06F04830FFF751FB04000AD000207D
:1055800084F8460004F148023B4631462846009420
:10559000FFF75AFA2046F8BD502080F31188BFF378
:1055A0004F8FBFF36F8FFEE70020E3E738B5049D10
:1055B00018B153B1CAB181B120E0502080F31188F5
:1055C000BFF34F8FBFF36F8FFEE7502080F311883A
:1055D000BFF34F8FBFF36F8FFEE7502080F311882A
:1055E000BFF34F8FBFF36F8FFEE739B1502080F3C9
:1055F0001188BFF34F8FBFF36F8FFEE748241C461F
:10560000012384F846302B460094FFF71DFA20460C
:1056100038BD000070B50D46040025D0FFF76CFCC6
:10562000D4E90F20216802FB001161600021A16311
:105630002168A1600A46D4E90F01401E00FB012148
:10564000E16021464FF0FF3001F8440F487004F14B
:1056500010008DB1FFF71EFC04F12400FFF71AFCC7
:10566000FFF76AFC012070BD502080F31188BFF362
:105670004F8FBFF36F8FFEE721690029F0D000F054
:10568000D3FC0028ECD004494FF080500860BFF3F1
:105690004F8FBFF36F8FE3E704ED00E02DE9FF4785
:1056A00082B01D468A464FF00008040003D0BAF1CC
:1056B000000F08D011E0502080F31188BFF34F8F06
:1056C000BFF36F8FFEE7206C38B1502080F3118854
:1056D000BFF34F8FBFF36F8FFEE7022D0AD1E06B50
:1056E000012807D0502080F31188BFF34F8FBFF3FC
:1056F0006F8FFEE700F04AFB3F4F4FF000094FF07D
:10570000805648B9049838B1502080F31188BFF30F
:105710004F8FBFF36F8FFEE7FFF7EEFBA06BE16BE0
:10572000884207D3022D05D00498D0B1B8F1000FFC
:105730001AD01EE02A4651462046FFF7DEF8616A7D
:1057400019B104F1240000F06FFC20B13E60BFF3FA
:105750004F8FBFF36F8FFFF7EFFB012006B0BDE85F
:10576000F087FFF7E9FB22E06846FFF789FC4FF07E
:105770000108FFF7E1FBFFF793FDFFF7BDFB94F98D
:105780004400401C01D184F8449094F94500401C29
:1057900001D184F84590FFF7CFFB04A9684600F0DB
:1057A00085F930B12046FFF703FA00F077FC0020BE
:1057B000D4E7FFF7A1FBA06BE16B884213D1FFF7A1
:1057C000BBFB04F110000499FFF768FC2046FFF7CB
:1057D000EFF900F063FC00289ED13E60BFF34F8FCD
:1057E000BFF36F8F98E7FFF7A7FB2046FFF7E0F9BD
:1057F00000F054FC90E7000004ED00E070B50E46A8
:10580000040009D0206C78B1502080F31188BFF3D8
:105810004F8FBFF36F8FFEE7502080F31188BFF3E7
:105820004F8FBFF36F8FFEE7206848B9606838B1CB
:10583000502080F31188BFF34F8FBFF36F8FFEE7C7
:10584000FFF7CEFB5020EFF3118580F31188BFF3F3
:105850004F8FBFF36F8FA16BE06B884218D994F91B
:105860004500491CA163411C04D0401C84F845003C
:1058700001200EE0606A0028FAD004F1240000F054
:10588000D3FB0028F4D0002EF2D001203060EFE7E7
:10589000002085F3118870BD2DE9F04790468946B8
:1058A000040003D0B9F1000F08D011E0502080F3BC
:1058B0001188BFF34F8FBFF36F8FFEE7206C38B1B5
:1058C000502080F31188BFF34F8FBFF36F8FFEE737
:1058D000FFF786FB5020EFF3118680F31188BFF3AA
:1058E0004F8FBFF36F8FA76BF7B194F944504946C0
:1058F0002046FEF7EFFF7F1EA763681C04D06D1CD7
:1059000084F84450012010E020690028FAD004F106
:10591000100000F089FB0028F4D0B8F1000FF1D09E
:105920000121C8F80010EDE7002086F31188BDE8DA
:10593000F08700002DE9F343002683B004003546CC
:1059400009D0206C78B1502080F31188BFF34F8FBD
:10595000BFF36F8FFEE7502080F31188BFF34F8FA6
:10596000BFF36F8FFEE700F011FADFF83C814FF0D4
:1059700000094FF0805748B9049838B1502080F39F
:105980001188BFF34F8FBFF36F8FFEE7FFF7B4FAB5
:10599000A06BC8B1401EA063206810B9FFF7AAF938
:1059A0006060206950B104F1100000F03DFB28B1A7
:1059B000C8F80070BFF34F8FBFF36F8FFFF7BCFACB
:1059C000012005B0BDE8F083049808B166B10FE08E
:1059D0003DB1502080F31188BFF34F8FBFF36F8F1D
:1059E000FEE7FFF7A9FA5DE06846FFF749FB0126ED
:1059F000FFF7A2FAFFF754FCFFF77EFA94F9440090
:105A0000401C01D184F8449094F94500401C01D118
:105A100084F84590FFF790FA04A9684600F046F82C
:105A20000028204612D0FFF7C3F800F037FB2046CD
:105A3000FFF782F80028A9D09DB3FFF75DFA606AEE
:105A400050B3206B0068C0F1070126E0FFF774F83F
:105A5000E0B1206838B9FFF74FFA606800F09AFAB1
:105A60000546FFF769FA04F124000499FFF716FBD5
:105A70002046FFF79DF800F011FB002886D1C8F8FA
:105A80000070BFF34F8FBFF36F8F7FE72046FFF7A4
:105A90008FF800F003FB79E700216068FFF73EFB19
:105AA0009FE7FFE700208CE704ED00E02DE9F041DF
:105AB0000C46050011D0C4B1FFF71EFA174B5A6906
:105AC0006E682068911B471C17D02F689B6A9F4205
:105AD00019D0964217D8012410E0502080F3118885
